:100000000C9442050C9463050C9463050C946305F1
:100010000C9463050C9463050C9463050C946305C0
:100020000C9463050C9463050C9463050C946305B0
:100030000C9463050C9447150C9463050C946305AC
:100040000C9463050C9463050C9463050C94630590
:100050000C9463050C9463050C9463050C94630580
:100060000C9463050C9474070C941C080C946305A1
:100070000C9463050C9463050C9463050C94630560
:100080000C9463050C9463050C9463050C94630550
:100090000C94AC070C9477080C9463050C946305DE
:1000A0000C9463050C9463050C9463050C94630530
:1000B0000C9463050C9463050C9463050C94630520
:1000C0000C9463050C9463050C9463050C94E4078D
:1000D0000C94D2080C9463050C9463050C9463058E
:1000E0000C9463050C94C90C0C94FC100C943A11FC
:1000F0000C9474110C94190E0C9420130C943D1153
:100100000C94F3100C94F90C0C9449120C943C12BE
:100110000C9434110C94860D0C942F110C94280D12
:100120000C9424110C94830E0C94BF0D0C94560E59
:100130000C9437110C9440110C94AE0C0C94431198
:100140000C94C40C0C9475120C9447110C942C1242
:100150003573205061737365640D0A004D4442206D
:1001600041726475696E6F204D6567612069732007
:1001700053657474696E672055700D0A004572727C
:100180006F723A20756E6B6E6F776E207375626357
:100190006F6D6D616E64205B5245414445525D0D4B
:1001A0000A004572726F723A20636865636B7375FB
:1001B0006D206572726F72205B5245414445525DFD
:1001C0000D0A004572726F723A20636865636B7343
:1001D000756D206572726F72205B524541444552C5
:1001E0005D0D0A004572726F723A20636865636B39
:1001F00073756D206572726F72205B524541444584
:10020000525D0D0A0073657373696F6E2D636F6DB8
:10021000706C6574650D0A004572726F723A2069E0
:100220006E76616C696420636865636B73756D20BD
:100230005B56454E445D0D0A0076656E642D666121
:10024000696C7572650D0A004572726F723A2069A9
:100250006E76616C696420636865636B73756D208D
:100260005B56454E445D0D0A004572726F723A202E
:10027000696E76616C696420636865636B73756D24
:10028000205B56454E445D0D0A0076656E642D6315
:10029000616E63656C0D0A004572726F723A206977
:1002A0006E76616C696420636865636B73756D203D
:1002B0005B56454E445D0D0A004572726F723A20DE
:1002C000696E76616C696420636865636B73756DD4
:1002D000205B56454E445D0D0A004D44422D564567
:1002E0004E4430300D0A004572726F723A206E6FC4
:1002F0002041434B207265636569766564206F6EAB
:10030000205B5245504C592043414E43454C454497
:100310005D0D0A004572726F723A206E6F20414384
:100320004B207265636569766564206F6E205B455E
:100330004E442053455353494F4E5D0D0A00456EC0
:100340006453657373696F6E30300D0A00457272C5
:100350006F723A206E6F2041434B2072656365696E
:10036000766564206F6E205B56454E442044454EB2
:10037000595D0D0A004572726F723A206E6F20410E
:10038000434B207265636569766564206F6E205B00
:1003900056454E4420415050524F56455D0D0A007F
:1003A0004572726F723A206E6F2041434B20726526
:1003B000636569766564206F6E205B5345535349CE
:1003C0004F4E2043414E43454C205245515D0D0A4E
:1003D0000053657373696F6E43616E63656C6C6522
:1003E0006430300D0A004572726F723A206E6F20D1
:1003F00041434B207265636569766564206F6E20AA
:100400005B53544152542053455353494F4E5D0D55
:100410000A00426567696E53657373696F6E3030A9
:100420000D0A004572726F723A206E6F2041434B85
:10043000207265636569766564206F6E205B4A553E
:1004400053542052455345545D0D0A004A75737448
:10045000524573657430300D0A0041434B30300D06
:100460000A004572726F723A20496E76616C696457
:1004700020636865636B73756D205B506F6C6C5D9A
:100480000D0A0053656E64696E6720757020737481
:10049000616765203320646174610D0A0030322089
:1004A000494E205354414745330D0A00494E2053CD
:1004B00054414745330D0A004572726F723A2075F8
:1004C0006E6B6E6F776E20737562636F6D6D616EAC
:1004D00064205B53455455505D0D0A004572726FA0
:1004E000723A206E6F2041434B20726563656976D6
:1004F0006564206F6E205B53455455505D00457216
:10050000726F723A20696E76616C69642063686507
:10051000636B73756D205B53455455505D0D0A0038
:100520004572726F723A20696E76616C69642063FD
:100530006865636B73756D20666F72205B524553FF
:1005400045545D0D0A00726573657474696E670ABF
:10055000004572726F723A204D6174654465616C3A
:100560006572206973206E6F7420696E206120733C
:1005700075697461626C6520737461746520746F51
:100580002063616E63656C20612073657373696FAE
:100590006E0D0A004572726F723A204D61746544A7
:1005A00065616C6572206973206E6F7420696E20BE
:1005B00061207375697461626C6520737461746520
:1005C00020746F2064656E7920612076656E640DFD
:1005D0000A004572726F723A204D6174654465611C
:1005E0006C6572206973206E6F7420696E206120C3
:1005F0007375697461626C652073746174652074CD
:100600006F20617070726F766520612076656E6410
:100610000D0A004572726F723A204D61746544652F
:10062000616C6572206E6F742072656164792066FA
:100630006F7220612073657373696F6E0D0A0045D8
:1006400072726F723A2053657373696F6E206973AB
:1006500020616C72656164792072756E6E696E6777
:100660000D0A00636D642073746172742073657386
:1006700073696F6E3030004053746174653A204E78
:10068000454741544956452056454E442A0D0A00D7
:100690004053746174653A20524556414C55452A81
:1006A0000D0A004053746174653A2056454E442A41
:1006B0000D0A004053746174653A20534553534901
:1006C0004F4E2049444C452A0D0A00405374617432
:1006D000653A20454E41424C45442A0D0A0040539C
:1006E000746174653A2044495341424C45442A0D93
:1006F0000A004053746174653A20494E414354499D
:1007000056452A0D0A004572726F723A205365747D
:100710007570206E6F742079657420636F6D706CD6
:1007200065746564210D0A002D2D2D2D2D2D2D2D87
:100730002D2D2D2D2D2D2D2D2D2D2D2D2D2D2D2DE9
:100740002D2D2D2D2D2D2D2D2D2D2D2D2D2D2D2DD9
:100750002D2D2D2D2D2D2D2A0D0A00232320202077
:1007600020564D432070726963652072616E676523
:10077000202020202023230D0A00232320564D4330
:1007800020636F6E66696775726174696F6E20644D
:100790006174612023230D0A00402D2D2D2D2D2D58
:1007A0002D2D2D2D2D2D2D2D2D2D2D2D2D2D2D2D79
:1007B0002D2D2D2D2D2D2D2D2D2D2D2D2D2D2D2D69
:1007C0002D2D2D2D2D2D2D2D2D0D0A002D2D2D2DC9
:1007D0002D2D2D2D2D2D2D2D2D2D2D2D2D2D2D2D49
:1007E0002D2D2D2D2D2D2D2D2D2D2D2D2D2D2D2D39
:1007F0002D2D2D2D2D2D2D2D2D2D2D0D0A0064652A
:100800006E792D76656E643A0D0A20202064656E3F
:1008100069657320612076656E6420726571756507
:1008200073742E0D0A00617070726F76652D766597
:100830006E64203C76656E642D616D6F756E743EDE
:100840003A0D0A202020617070726F766573206106
:100850002076656E642072657175657374207769A2
:100860007468203C76656E642D616D6F756E743EA4
:10087000204575726F2043656E74732E0D0A0073E8
:10088000746172742D73657373696F6E203C667545
:100890006E64733E3A0D0A20202073746172747383
:1008A00020612073657373696F6E207769746820A7
:1008B0003C66756E64733E204575726F2043656EAD
:1008C00074732E0D0A006D64622D73746174653A41
:1008D0000D0A202020646973706C6179732074683C
:1008E000652063757272656E74204D444220737486
:1008F0006174652E0D0A00696E666F3A0D0A20203C
:100900002073686F77732074686520564D432069A3
:100910006E666F73207472616E73666572656420B3
:10092000647572696E67207468652073657475708C
:100930002070726F636573730D0A0072657365745E
:100940003A0D0A2020207265736574207468652052
:1009500041726475696E6F0D0A002D2D2D2D2D2DA0
:100960002D2D2D2D2D2D2D2D2D2D2D2D2D2D2D2DB7
:100970002D2D2D2D2D2D2D2D2D2D2D2D2D2D2D2DA7
:100980002D2D2D2D2D2D2D2D2D0D0A004076656E32
:10099000642D6661696C65642A0D0A004076656E97
:1009A000642D737563636573732A0D0A0040766561
:1009B0006E642D737563636573732A0D0A00404975
:1009C0004F3A20504C4159342A0D0A0040494F3AC1
:1009D00020504C4159332A0D0A0040504F3A2050C4
:1009E000494E3132204F4E2A0D0A0040494F3A20DD
:1009F00050494E3132204F46462A0D0A004052459A
:100A000053455454494E47204445564943452A0DC1
:100A10000A004572726F723A20556E6B6E6F776E78
:100A200020636F6D6D616E640D0A005365747469A7
:100A30006E675570205478205377697463680D0A87
:100A4000004C4153542073746174652077617320A6
:100A50004661696C65640D0A0056454E4420534555
:100A60005353494F4E20434F4D504C4554450D0A6A
:100A7000004C415354207374617465207761732076
:100A8000300D0A0011241FBECFEFD1E2DEBFCDBF73
:100A900000E00CBF17E0A0E0B2E0E6EEF3E300E018
:100AA0000BBF02C007900D92AC38B107D9F727E011
:100AB000ACE8B7E001C01D92AA3EB207E1F70E9480
:100AC000AA150C94E0190C9400007F928F929F92CB
:100AD000AF92BF92CF92DF92EF92FF920F931F934C
:100AE000CF93DF93182F4A015B01C22F7E2C60E861
:100AF00074E88EE190E0A50194010E94221669013C
:100B00007A0181E0C81AD108E108F108F694E79467
:100B1000D794C794412F50E08CE091E0189FD0010A
:100B2000199FB00D1124CD0180509E4FFD01EC5F47
:100B3000FC4F0190F081E02D2D2D33272083FD0106
:100B4000EA5FFC4F0190F081E02DC082A85FBC4FAE
:100B5000ED91FC911197208128602083ED91FC910B
:100B60001197208120612083ED91FC9111972081C4
:100B700020682083C73009F45CC020F5C530D9F166
:100B8000C63009F44DC08CE091E0489FF001499FC8
:100B9000F00D589FF00D1124E65FFC4FA081B1814C
:100BA0000E3409F45EC00F3409F486C0053409F030
:100BB00061C08C918F7E8C930190F081E02D8081BB
:100BC000806257C0C83009F443C0C930E1F6FC0167
:100BD000E65FFE4F20813181E90188818260888350
:100BE0000190F081E02D808184608083ED91FC9103
:100BF0008081846013C0FC01E65FFE4F208131815B
:100C0000E90198819D7F98830190F081E02D80819A
:100C10008B7F8083ED91FC9180818B7F8083B3CF2C
:100C2000FC01E65FFE4F20813181E90198819260ED
:100C3000EACFFC01E65FFE4F20813181E901988116
:100C40009D7F98830190F081E02D80818460E1CFC9
:100C5000FC01E65FFE4F20813181E90198819260BD
:100C6000F0CF8C918F7E8C930190F081E02D80816C
:100C70008F7D80838CE091E0489FF001499FF00DCB
:100C8000589FF00D1124E65FFC4F0190F081E02D9C
:100C9000D1E08081D71598F488608083DF91CF916F
:100CA0001F910F91FF90EF90DF90CF90BF90AF908A
:100CB0009F908F907F9008958C9180617CCF877FEB
:100CC000ECCF4CE051E0849F9001859F300D1124C2
:100CD00082E8689F200D311D1124F901EF57FD4F67
:100CE000808120583D4FF9019081891B08950F9311
:100CF0001F93CF93DF938A014CE051E0849F9001D2
:100D0000859F300D1124C90142E8649F800D911D1B
:100D10001124EC01C050DE4FFC01E058FD4F208152
:100D20008F579D4FDC018C91281781F08081C80F6F
:100D3000D11D8881D8018C9380818F5F8F778083CC
:100D400080E0DF91CF911F910F91089581E0F9CF5D
:100D5000CF93DF93ECE0F1E08E9F90018F9F300DF9
:100D60001124F90182E8689FE00DF11D1124DF01D3
:100D7000A050BE4FEF01CF57DD4F88818F5F8F7737
:100D8000E058FD4F90819817E9F3FD01EF57FF4FB1
:100D90009081A90FB11D4C9380836130C9F4C901C2
:100DA00080509E4F285F3C4FD901ED91FC912081EE
:100DB00022FF0BC0DC01AD5FBE4F2C918E5F9E4FBA
:100DC000DC018C91281B20FD03C080818062808320
:100DD00080E0DF91CF910895462F61E00C94A80642
:100DE000AB0160E00C9477061F93CF93DF93182F2D
:100DF000EB016991611105C0862FDF91CF911F91A1
:100E00000895812F0E94EC06882399F361E0F4CFC6
:100E1000FF920F931F93CF93DF930F92CDB7DEB75F
:100E2000F82E8B01BE016F5F7F4F8F2D0E94F00661
:100E300081110DC08981F80181938F018111F2CF59
:100E40000F90DF91CF911F910F91FF90089581E056
:100E5000F7CF1F93CF93DF93182FEB01FE0164911F
:100E6000611105C0862FDF91CF911F910895812FC9
:100E70000E94EC06811102C02196F0CF61E0F2CF12
:100E80001F93CF93DF93D82F162F413079F4472F3C
:100E900061E00E94A806C82F412F61E08D2F0E94BB
:100EA000A8068C2BDF91CF911F910895FBCF1F9344
:100EB000CF93DF930F920F92CDB7DEB7182FAE010D
:100EC0004E5F5F4F60E00E947706AE014F5F5F4F5D
:100ED00060E0812F0E9477069A8189810F900F90A0
:100EE000DF91CF911F9108951F920F920FB60F922D
:100EF00011240BB60F922F933F934F935F936F93F1
:100F00007F938F939F93AF93BF93EF93FF938091C2
:100F1000C10082FF08C04091C1004695417060E069
:100F200080E00E94A8064091C60060E080E00E9438
:100F3000A806FF91EF91BF91AF919F918F917F9103
:100F40006F915F914F913F912F910F900BBE0F903A
:100F50000FBE0F901F9018951F920F920FB60F9211
:100F600011240BB60F922F933F934F935F936F9380
:100F70007F938F939F93AF93BF93EF93FF93809152
:100F8000C90082FF08C04091C9004695417060E0E9
:100F900081E00E94A8064091CE0060E081E00E94BE
:100FA000A806FF91EF91BF91AF919F918F917F9193
:100FB0006F915F914F913F912F910F900BBE0F90CA
:100FC0000FBE0F901F9018951F920F920FB60F92A1
:100FD00011240BB60F922F933F934F935F936F9310
:100FE0007F938F939F93AF93BF93EF93FF938091E2
:100FF000D10082FF08C04091D1004695417060E069
:1010000082E00E94A8064091D60060E082E00E9443
:10101000A806FF91EF91BF91AF919F918F917F9122
:101020006F915F914F913F912F910F900BBE0F9059
:101030000FBE0F901F9018951F920F920FB60F9230
:1010400011240BB60F922F933F934F935F936F939F
:101050007F938F939F93AF93BF93EF93FF93CF9320
:10106000DF930F92CDB7DEB7909103038091020317
:101070009817B9F18091C10082FF0FC0AE014F5F98
:101080005F4F61E080E00E947706898180FF25C084
:101090008091C10081608093C100AE014F5F5F4FBE
:1010A00061E080E00E94770689818093C6000F90FE
:1010B000DF91CF91FF91EF91BF91AF919F918F9170
:1010C0007F916F915F914F913F912F910F900BBE48
:1010D0000F900FBE0F901F9018958091C1008E7FCA
:1010E000DACF8091C1008F7D8093C100E0CF1F9245
:1010F0000F920FB60F9211240BB60F922F933F93BE
:101100004F935F936F937F938F939F93AF93BF930F
:10111000EF93FF93CF93DF930F92CDB7DEB790910C
:101120000F0480910E049817B9F18091C90082FFD5
:101130000FC0AE014F5F5F4F61E081E00E94770614
:10114000898180FF25C08091C90081608093C9009A
:10115000AE014F5F5F4F61E081E00E9477068981B9
:101160008093CE000F90DF91CF91FF91EF91BF91CF
:10117000AF919F918F917F916F915F914F913F912F
:101180002F910F900BBE0F900FBE0F901F901895D0
:101190008091C9008E7FDACF8091C9008F7D8093C6
:1011A000C900E0CF1F920F920FB60F9211240BB619
:1011B0000F922F933F934F935F936F937F938F93F0
:1011C0009F93AF93BF93EF93FF93CF93DF930F92D0
:1011D000CDB7DEB790911B0580911A059817B9F12C
:1011E0008091D10082FF0FC0AE014F5F5F4F61E081
:1011F00082E00E947706898180FF25C08091D1001E
:1012000081608093D100AE014F5F5F4F61E082E06B
:101210000E94770689818093D6000F90DF91CF914D
:10122000FF91EF91BF91AF919F918F917F916F91BE
:101230005F914F913F912F910F900BBE0F900FBE7A
:101240000F901F9018958091D1008E7FDACF8091FA
:10125000D1008F7D8093D100E0CF80919D07909148
:101260009E07089560E081E00E946106823070F17F
:1012700081E00E945707409749F01092A80710920A
:10128000A90760E275E080E00C9429071092A3079B
:101290001092A4071092A5071092A6071092A0071B
:1012A00010929F071092A2071092A10740914E053D
:1012B00060E071E081E00E94400781E08093A70731
:1012C0001092AA071092A8078093A9070895AF92D9
:1012D000BF92CF92DF92EF92FF920F931F93CF9323
:1012E000DF93CDB7DEB7C05DD1090FB6F894DEBF8E
:1012F0000FBECDBF1A821982FE0133968EE7DF0141
:101300001D928A95E9F76CEA74E080E00E94290753
:1013100060E081E00E9461068F33D0F36DE974E0F4
:1013200080E00E942907FE0131966F017E01F0E204
:10133000EF0EF11C860181E00E945707D8018D93C2
:101340008D01AE15BF05B9F763E874E080E00E9437
:1013500029076091260570E040914E0581E00E94CA
:1013600040076091270570E040914E0581E00E94A2
:1013700040076091280570E040914E0581E00E9491
:1013800040076091290570E040914E0581E00E9480
:10139000400760912A0570E040914E0581E00E946F
:1013A000400760912B0570E040914E0581E00E945E
:1013B000400760912C0570E040914E0581E00E944D
:1013C000400760912D0570E040914E0581E00E943C
:1013D000400760912E0570E040914E0581E00E942B
:1013E000400760912F0570E040914E0581E00E941A
:1013F00040076091300570E040914E0581E00E9409
:1014000040076091310570E040914E0581E00E94F7
:1014100040076091320570E040914E0581E00E94E6
:1014200040076091330570E040914E0581E00E94D5
:1014300040076091340570E040914E0581E00E94C4
:1014400040076091350570E040914E0581E00E94B3
:1014500040076091360570E040914E0581E00E94A2
:1014600040076091370570E040914E0581E00E9491
:1014700040076091380570E040914E0581E00E9480
:1014800040076091390570E040914E0581E00E946F
:10149000400760913A0570E040914E0581E00E945E
:1014A000400760913B0570E040914E0581E00E944D
:1014B000400760913C0570E040914E0581E00E943C
:1014C000400760913D0570E040914E0581E00E942B
:1014D000400760913E0570E040914E0581E00E941A
:1014E000400760913F0570E040914E0581E00E9409
:1014F00040076091400570E040914E0581E00E94F8
:1015000040076091410570E040914E0581E00E94E6
:1015100040076091420570E040914E0581E00E94D5
:1015200040076091430570E040914E0581E00E94C4
:101530004007609144057091450540914E0581E05A
:101540000E94400710E000E081E8A82E85E0B82E58
:101550007E01B1E8EB0EF11CF60181916F011F9243
:101560008F931F930F93BF92AF92FF92EF920E94BF
:10157000F616B70180E00E94F4060F5F1F4F0FB60A
:10158000F894DEBF0FBECDBF0032110529F7C0535E
:10159000DF4F0FB6F894DEBF0FBECDBFDF91CF9106
:1015A0001F910F91FF90EF90DF90CF90BF90AF9081
:1015B0000895AF92BF92CF92DF92EF92FF920F9376
:1015C0001F93CF93DF93CDB7DEB7AE970FB6F894E6
:1015D000DEBF0FBECDBF86E0EBE7F5E0DE019996FA
:1015E00001900D928A95E1F78091B307823008F05F
:1015F00077C060E081E00E9461068C3008F45DC035
:101600007E0189E2E80EF11C6E019FE2C90ED11C39
:1016100081E00E945707F70181937F01EC15FD05DA
:10162000B9F7F9A48AA58F0D9927991F2BA5820FC9
:10163000911D2CA5820F911D2DA5820F911D20912A
:10164000240530912505820F931F99279093250536
:10165000809324052EA59F938F93A22EB12C1F92C9
:101660002F938AE995E09F938F93CE0101966C01A9
:101670009F938F930E94F616B60180E00E94F406B5
:101680000FB6F894DEBF0FBECDBF809124059091B8
:101690002505A816B90611F11092B3071092A807F4
:1016A0001092A90781E190E090932505809324058D
:1016B0006EEF74E080E00E942907AE960FB6F894B2
:1016C000DEBF0FBECDBFDF91CF911F910F91FF9075
:1016D000EF90DF90CF90BF90AF900895F092B30756
:1016E0008091B307813009F48CC0823009F4D2C0F4
:1016F0008111F8C08AA58093A3078BA58093A407C6
:101700008CA58093A5078DA58093A60760914605BB
:101710008091480590914905092F10E0800F912F85
:10172000911D20914A05820F911D20914B05820F3A
:10173000911D20914C05820F911D20914D05820F26
:10174000911D2091470570E0260F372F311D820F24
:10175000931F9927916090932505809324054091CC
:101760004E0581E00E9440076091470570E040917E
:101770004E0581E00E9440076091490540914E0569
:1017800070E081E00E944007609148057091490532
:10179000772740914E0581E00E94400760914A05FD
:1017A00070E040914E0581E00E94400760914B053A
:1017B00070E040914E0581E00E94400760914C0529
:1017C00070E040914E0581E00E94400760914D0518
:1017D00070E040914E0581E00E9440076091240531
:1017E0007091250540914E0581E00E94400782E0FE
:1017F0008093B30781E190E09093250580932405C1
:101800005CCF8AA59BA59827892798279093A00746
:1018100080939F078CA59DA598278927982790934B
:10182000A2078093A10740914E0560E071E081E03E
:101830000E94400782E08093AA071092B30781E1DB
:1018400090E090932505809324051092A8071092AC
:10185000A9071F921F921F928F9382EC95E09F938E
:101860008F938E010F5F1F4F1F930F930E94F616E9
:10187000B80180E00E94F40681E090E090939E071A
:1018800080939D070E9467090FB6F894DEBF0FBED4
:10189000CDBF13CF60E081E00E946106823008F482
:1018A0000CCF81E00E9457071092B3071092A8074F
:1018B0001092A907823008F400CF6CED74E080E04C
:1018C000AE960FB6F894DEBF0FBECDBFDF91CF91BD
:1018D0001F910F91FF90EF90DF90CF90BF90AF904E
:1018E0000C94290768EB74E080E00E9429071092AD
:1018F000B3071092A8071092A907DFCE0F931F938A
:10190000CF93DF938091B20781111DC060E081E029
:101910000E9461068230C0F181E00E945707429721
:1019200079F01092A8071092A9071092B20762E608
:1019300074E080E0DF91CF911F910F910C94290703
:1019400081E08093B207E091A907EA30E8F4F0E083
:101950008827EE51F64E8F4F0C94441640914E0559
:1019600060E071E081E00E9440071092A8071092A9
:10197000A9076AE574E080E00E94290761E08CE035
:101980000E949D141092B207DF91CF911F910F9189
:1019900008958091B2078130B1F440914E0570E016
:1019A00060E00E94400740914E0560E071E081E0F8
:1019B0000E9440076CE474E080E00E94290782E006
:1019C0008093B207E1CF8230F9F660E081E00E94B7
:1019D00061068230C8F281E00E945707892B99F195
:1019E0001092A8071092A9071092B20763E274E060
:1019F000A0CF40914E0562E070E081E00E94400778
:101A000040914E0562E370E081E00E944007409102
:101A10004E0569E470E081E00E94400740914E0568
:101A20006FE470E081E00E94400740914E0564E55C
:101A300070E081E00E94400740914E0561E470E053
:101A400081E00E9440071092A8071092A9079ACF40
:101A500080919507882309F497CF8091B207813050
:101A600069F540914E0563E070E00E944007609187
:101A7000970740914E0570E081E00E944007609119
:101A8000960770919707772740914E0581E00E9455
:101A900040078091960790919707092F10E0B801B1
:101AA000680F711D6D5F7F4F7727716040914E0504
:101AB00081E00E94400762E174E07ECF823009F04D
:101AC00063CF60E081E00E946106823008F45CCF61
:101AD00081E00E945707892B79F01092A807109295
:101AE000A9071092950710929707109296071092E7
:101AF000B20766EE73E01DCF10929507109297071C
:101B00001092960783E08093AA079DCF8091B20739
:101B1000813081F440914E0564E070E00E944007FE
:101B200040914E0564E071E081E00E94400761ED64
:101B300073E042CF823009F027CF60E081E00E945D
:101B40006106823008F420CF81E00E945707892B7C
:101B500079F01092A8071092A90710929507109299
:101B60009707109296071092B20760EA73E0E1CEF1
:101B700010929507109297071092960764CF809164
:101B80009807882309F400CF8091B207813061F56E
:101B900040914E0565E070E00E94400760919B0710
:101BA00040914E0570E081E00E94400760919A07E5
:101BB00070919B07772740914E0581E00E94400776
:101BC00080919A0790919B07C92F90E0D92FBE0171
:101BD000680F711D6B5F7F4F7727716040914E05D5
:101BE00081E00E944007EBCE823009F0CDCE60E06C
:101BF00081E00E946106823008F4C6CE81E00E9436
:101C00005707892B79F01092A8071092A907109214
:101C1000980710929B0710929A071092B20765E7F7
:101C200073E087CE1092980710929B0710929A0744
:101C30000ACF80919907882309F4A6CE8091B20734
:101C4000813059F440914E0566E070E00E944007F3
:101C500040914E0566E071E0C3CF823009F094CE2A
:101C600060E081E00E946106823008F48DCE81E060
:101C70000E945707892B89F01092A8071092A90794
:101C80001092950710929707109296071092990755
:101C90001092B2076DE473E04CCE1092950710924B
:101CA00097071092960710929907CDCE8091B207B0
:101CB000813081F440914E0567E070E00E9440075A
:101CC00040914E0567E071E081E00E9440076EE3BD
:101CD00073E072CE823009F057CE60E081E00E945E
:101CE0006106823008F450CE81E00E945707892BAC
:101CF00009F4A9CE1092A8071092A9071092B20772
:101D000064E173E016CE8091B207813059F44091BE
:101D10004E0568E070E00E94400740914E0568E083
:101D200071E05ECF823009F02FCE60E081E00E944A
:101D30006106823008F428CE81E00E945707892B83
:101D400009F481CE1092A8071092A9071092B20749
:101D500067EE72E0EECDEF92FF920F931F93CF9359
:101D6000DF93CDB7DEB7A8970FB6F894DEBF0FBEEE
:101D7000CDBF6AED72E080E00E9429078091B10733
:101D800081110FC060E081E00E946106823008F49A
:101D900057C081E00E9457078093AB0781E0809392
:101DA000B1078091AB07823009F4C1C008F042C08E
:101DB000811186C060E081E00E9461068A3008F4EB
:101DC0003FC00CEA17E081EBE82E87E0F82E81E0B7
:101DD0000E945707F80181938F01EE16FF06B9F7AD
:101DE0009091AC072091AD073091AE074091AF07BD
:101DF0005091B0078091AB07890F8D5E820F830FE2
:101E0000840F581751F11092B1071092A807109241
:101E1000A90769EB72E080E0A8960FB6F894DEBFE0
:101E20000FBECDBFDF91CF911F910F91FF90EF902B
:101E30000C942907833009F4D7C0843009F406C113
:101E4000A8960FB6F894DEBF0FBECDBFDF91CF913D
:101E50001F910F91FF90EF9008951F925F931F9233
:101E60004F931F923F931F922F931F929F9381EF47
:101E700095E09F938F938E010F5F1F4F1F930F93DA
:101E80000E94F616B80180E00E94F406B80180E0D6
:101E90000E94F40640914E0560E071E081E00E94EE
:101EA00040071092B10784E08093AA071092A80718
:101EB0001092A9070FB6F894DEBF0FBECDBFC0CFFA
:101EC00060E081E00E946106823008F4B9CF81E0D1
:101ED0000E9457078093AC079091AB079D5E22E06C
:101EE0002093E707891749F01092B1071092A807CD
:101EF0001092A90768E972E08ECF6AE872E080E08C
:101F00000E94290740914E0560E071E081E00E9447
:101F100040071092B10783E08093AA071092A807A8
:101F200087E08093A907E0E0F0E0099489CF60E0C2
:101F300081E00E946106863008F482CF11E01093A0
:101F4000E70781E00E9457078093AC0781E00E9479
:101F500057078093AD0781E00E945707282F809391
:101F6000AE078091AC073091AD079091AB07980F09
:101F70009D5E930F291749F01092B1071092A807A0
:101F80001092A90769E672E046CF1093E707830F26
:101F90009927991F9F938F9381E196E09F938F9349
:101FA000FE0131967F01FF93EF930E94F616B70171
:101FB00080E00E94F40640914E0560E071E081E00F
:101FC0000E9440071092B10783E08093AA07109205
:101FD000A8071092A9071093E7070F900F900F9092
:101FE0000F900F900F902CCF60E081E00E9461066F
:101FF000823008F425CF81E00E9457078093AC0718
:102000009091AB079D5E891749F01092B10710922D
:10201000A8071092A90768E472E0FDCE69E372E0B8
:1020200080E00E94290712E01093E70740914E05D7
:1020300060E071E081E00E9440071092B1071093C8
:10204000AA071092A8071092A9076DCF60E081E05F
:102050000E946106823008F4F3CE11E01093E70786
:1020600081E00E9457078093AC079091AB079D5E7B
:10207000891749F01092B1071092A8071092A9078A
:1020800068E172E0C8CE65E072E080E00E94290756
:102090001093E70740914E0560E071E081E00E94F7
:1020A00040071092B10782E08093AA071092A80718
:1020B0001092A9071093E707C3CECF9360E081E0A9
:1020C0000E946106843008F181E00E945707C82F02
:1020D00081E00E945707C130D1F0C23069F16DE74D
:1020E00071E0C1113CC064EE71E08431C1F54091F2
:1020F0004E0560E071E081E00E9440071092A80761
:102100001092A90781E08093AA07CF91089563EC0C
:1021100071E0853121F561E08CE00E949D144091D1
:102120004E0560E071E081E00E9440071092A80730
:102130001092A90782E0E7CF62EA71E0863179F474
:1021400040914E0560E071E081E00E9440071092EE
:10215000A80789E08093A907C093AA07D6CF80E09B
:102160000E9429071092A8071092A907CECF80914C
:10217000A807823189F138F4803151F1813151F170
:10218000882331F00895833149F1843149F108956C
:1021900060E081E00E946106823020F181E00E94CF
:1021A00057079C0190FF1EC041E094274097059778
:1021B000C8F42093A8079091A707911113C020316C
:1021C00089F01092A80766E475E080E00C94290776
:1021D0000C9432090C94D90A0C947E0C0C94AB0E1E
:1021E0000C945D1008956DEF79E080E00E9429075E
:1021F000E0E0F0E0099408956AE579E080E00E946B
:1022000029076BE379E080E00E94290767EF78E017
:1022100080E00E94290766EC78E080E00E942907B0
:102220006FE778E080E00E94290766E278E080E0CE
:102230000E9429076EEF77E080E00E9429076CEC8E
:1022400077E080E00C942907E091AA07E730F0F4EA
:10225000F0E08827E451F64E8F4F0C94441662EF5D
:1022600076E080E00C9429076EED76E0FACF6BEC17
:1022700076E0F7CF63EB76E0F4CF63EA76E0F1CF78
:1022800060E976E0EECF67E776E0EBCF08950E9455
:102290007A169C01205B34402436310520F564E633
:1022A00070E00E940E16009739F46BEE79E080E042
:1022B0000E94290715B808958130910541F46AED0F
:1022C00079E080E00E94290780E485B908956CECEC
:1022D00079E08230910521F0039729F46EEB79E0E3
:1022E00080E00C94290708954F925F926F927F923D
:1022F0008F929F92AF92BF92CF92DF92EF92FF9216
:102300000F931F93CF93DF93CDB7DEB7C255D1099B
:102310000FB6F894DEBF0FBECDBF4E0121E5820E91
:10232000911C20E230E0F40131832083B4010E944B
:102330009816182F092FB12CA12CD12C612CC12C4F
:10234000712CF12CE12C512C412CA114B10409F079
:1023500068C01093C8070093C907812F902F0E946F
:102360007A16F82EE92E27012FEFA21AB20A83E07F
:10237000A816B10451F76F92DF927F92CF92EF923D
:10238000FF9283E296E09F938F938E01075D1F4F2C
:102390001F930F930E94F616B80180E00E94F40686
:1023A0000E948A151F928F9388E396E09F938F93E4
:1023B000FE0131967F01FF93EF930E94F616B7015D
:1023C00080E00E94F40681E08093CD074F925F92F7
:1023D00088E496E09F938F931F930F930E94F616C5
:1023E000B80180E00E94F4060FB6F894DEBF0FBE7D
:1023F000CDBFCE5ADF4F0FB6F894DEBF0FBECDBFB4
:10240000DF91CF911F910F91FF90EF90DF90CF90D0
:10241000BF90AF909F908F907F906F905F904F9004
:102420000895B40190E080E0F1E0AF16B10449F402
:102430000E949816182F092F0E947A16C82E792EFE
:1024400093CF0E949816182F092F0E947A16D82E23
:10245000692E8093CA0788CF8091AA07843039F407
:1024600081E08093990787E08093A907089564E944
:1024700075E080E00C9429078091AA07833021F44D
:1024800085E08093A907089561E575E080E00C94EC
:102490002907CF93DF93D82FC92F8091AA078230C5
:1024A00009F580919507811116C081E08093950709
:1024B00063E676E080E00E9429078D2F9C2F0E9422
:1024C0007A16909397078093960784E08093A907E4
:1024D000DF91CF9108956FE376E080E0DF91CF91B7
:1024E0000C94290763E176E0F8CF0F931F93CF9305
:1024F000DF93CDB7DEB7A8970FB6F894DEBF0FBE57
:10250000CDBF8091AA07823008F48BC069E977E0DB
:1025100080E00E9429076AE777E080E00E942907AF
:102520008091A3071F928F9388E696E09F938F93E5
:102530008E010F5F1F4F1F930F930E94F616B80175
:1025400080E00E94F4068091A4071F928F9386E892
:1025500096E09F938F931F930F930E94F616B801F6
:1025600080E00E94F4068091A5071F928F9384EA71
:1025700096E09F938F931F930F930E94F616B801D6
:1025800080E00E94F4068091A6071F928F9382EC50
:1025900096E09F938F931F930F930E94F616B801B6
:1025A00080E00E94F4066BE577E080E00E94290756
:1025B0008091A0078F9380919F078F9380EE96E084
:1025C0009F938F931F930F930E94F616B80180E09C
:1025D0000E94F4068091A2078F938091A1078F93A8
:1025E0008EEF96E09F938F931F930F930E94F616A2
:1025F0000FB6F894DEBF0FBECDBFB80180E00E94D9
:10260000F40668E277E080E00E942907A8960FB6FA
:10261000F894DEBF0FBECDBFDF91CF911F910F9118
:10262000089566E077E080E0A8960FB6F894DEBFE4
:102630000FBECDBFDF91CF911F910F910C94290751
:102640000F931F93CF93DF93CDB7DEB76E970FB67F
:10265000F894DEBF0FBECDBF8C018091AA078430F5
:1026600091F581E080939807C8010E947A169093B3
:102670009B0780939A07C8010E947A169F938F93B5
:102680008CE197E09F938F938E010F5F1F4F1F93F5
:102690000F930E94F616B80180E00E94F40686E0CF
:1026A0008093A9070F900F900F900F900F900F90AD
:1026B0006E960FB6F894DEBF0FBECDBFDF91CF91FF
:1026C0001F910F91089562ED75E080E06E960FB650
:1026D000F894DEBF0FBECDBFDF91CF911F910F9158
:1026E0000C942907BF92CF92DF92EF92FF920F9343
:1026F0001F93CF93DF930F920F92CDB7DEB79A83DC
:1027000089836CE277E0CE0101960E94AF16B82E65
:10271000C92ED12C0D2D10E084E0D89E90011124FB
:10272000D901A15BBA4F7D016B2D7C2D8D919C91C0
:102730000E949C16892B41F4D7011296ED91FC91D1
:1027400089819A81199510C0000F111F000F111F68
:10275000F801ED5AFA4F80819181892B89F462E169
:102760007AE080E00E9429070F900F90DF91CF91CF
:102770001F910F91FF90EF90DF90CF90BF90089541
:10278000D394C8CF60E080E00E946106882399F16D
:102790008091E207843111F41092E2076091E20720
:1027A00070E06253784F80E00E94F0068091E2076B
:1027B000E82FF0E0E253F84F60816D30E9F0A0F4CB
:1027C000683061F16A30B9F0DF0111979C919B3557
:1027D00029F43297908182509B3159F080E00E9419
:1027E000EC068091E20704C0962F9F7B9B3161F736
:1027F0008F5F8093E207089565E376E080E00E94B2
:10280000F406E091E207F0E0E253F84F10828EEC1C
:1028100097E00E9472131092E2070895815080930E
:10282000E20768E080E00C94EC0681E08093CD073D
:1028300008951092CD071092CC078EE297E0909306
:10284000C9078093C80708958091CD0708958091A6
:10285000CC078F5F8093CC0708958091CC070895B3
:1028600008950E941914E0E0F0E0099408958111A0
:1028700008C08091C8079091C9070E9449120C9422
:1028800027148330F1F0893059F08C3099F08B3176
:10289000C1F08132E9F0863289F08A3279F0EFCFE7
:1028A0008091E7076DEA79E0813049F780E00E9486
:1028B0002907E5CF8091E707813009F70E9431149D
:1028C000DECF8091C8079091C9070E942013D7CF0F
:1028D0008091E7076CE979E0813041F36CE879E0B9
:1028E000E5CF823221F417B88FEF88B9089581328D
:1028F000D1F38032C1F30895813239F486B185FB7A
:10290000882780F991E089270895803221F486B1E3
:1029100082958170F7CF823229F486B183FB8827B4
:1029200080F9F0CF08958C3019F48FEF84B915B881
:102930006BE27AE080E00C9429078C3041F461115D
:1029400002C015B8089580E4613041F008958D30DB
:10295000E9F76623B1F36130C9F780E885B9F6CFAE
:10296000CF93DF9300D00F92CDB7DEB7A8EEB3E0E0
:102970009B01AC010E944C160F900F900F900F908E
:10298000DF91CF91089582E08093B00094E090931E
:10299000B100809370008AEF8093B3000895CF93C5
:1029A000DF9300D00F92CDB7DEB78FB7F8942091A8
:1029B000E3073091E4074091E5075091E60729834A
:1029C0003A834B835C838FBF69817A818B819C8141
:1029D0000F900F900F900F90DF91CF910895E4E644
:1029E000F0E080818F7B8083E0E7F0E0808182608F
:1029F00080830895E0E7F0E080818D7F8083E4E6C6
:102A0000F0E080818064808308958FB7F8941092FD
:102A1000E3071092E4071092E5071092E6078FBFD4
:102A20000895462F572FBC012FB7F8948091E307E4
:102A30009091E407A091E507B091E607840F951FF8
:102A4000A61FB71F8093E3079093E407A093E507C1
:102A5000B093E6072FBF0895462F572FBC012FB71D
:102A6000F8948091E3079091E407A091E507B09175
:102A7000E607841B950BA60BB70B8093E307909397
:102A8000E407A093E507B093E6072FBF08951F92D0
:102A90001FB61F9211248F939F93AF93BF93809182
:102AA000E3079091E407A091E507B091E60701964E
:102AB000A11DB11D8093E3079093E407A093E50760
:102AC000B093E607BF91AF919F918F911F901FBE6A
:102AD0001F901895682F80E490E00E94CE19089509
:102AE00080E490E00C94C619CF93C82F81E0C130E8
:102AF00019F0C23039F482E00E946A15C093E707EA
:102B0000CF910895C111FCCF80E00E946A15109208
:102B1000E707F6CF0C94701580E00E946A151092BA
:102B2000E70708951092E7078091E70761E77AE0E9
:102B3000882369F08091E70769E57AE0813031F018
:102B40008091E707823029F461E47AE080E00C9418
:102B500029070895EE24E3940EE428E040E056E9C6
:102B600060E070E080E00E94650529E040E855E201
:102B700060E070E081E00E94650528E040E855E2F1
:102B800060E070E082E00E9465050E94C3148CE062
:102B90000E9493148DE00E94931460E08DE00E94E7
:102BA0009D1461E08CE00E949D1478946CE571E0C6
:102BB00080E00E9429070E94B7100E94C2130E9461
:102BC00024148823C1F30E94CF146B017C018091EF
:102BD000910790919207A0919307B0919407A70154
:102BE0009601281B390B4A0B5B0BDA01C901883EA1
:102BF0009340A105B105F8F260E571E080E00E9424
:102C000029070E942D140E943714C0929107D09278
:102C10009207E0929307F0929407CDCF97FB072E8F
:102C200016F4009407D077FD09D00E94571607FCD0
:102C300005D03EF4909581959F4F089570956195CC
:102C40007F4F0895A1E21A2EAA1BBB1BFD010DC0E8
:102C5000AA1FBB1FEE1FFF1FA217B307E407F5074C
:102C600020F0A21BB30BE40BF50B661F771F881F28
:102C7000991F1A9469F760957095809590959B01BE
:102C8000AC01BD01CF010895EE0FFF1F881F8BBF60
:102C90000790F691E02D19940E946B16A59F900D58
:102CA000B49F900DA49F800D911D11240895AA1B1F
:102CB000BB1B51E107C0AA1FBB1FA617B70710F027
:102CC000A61BB70B881F991F5A95A9F78095909559
:102CD000BC01CD010895A29FB001B39FC001A39F85
:102CE000700D811D1124911DB29F700D811D112445
:102CF000911D0895FC0188279927E894219120329D
:102D0000E9F3293010F02E30C8F32B3241F02D3288
:102D100039F4689404C00E94EE16820F911D21912F
:102D200020532A30C0F31EF4909581959F4F08954B
:102D300048EE57E00C94C716FB01DC018D918134FD
:102D40001CF08B350CF4805E619161341CF06B35A6
:102D50000CF4605E861B611189F3990B0895FC01E8
:102D6000A081B181AD01109681F03D91FB010190F0
:102D700003160110E1F7C9F7002011F4D00102C0D9
:102D80001E921196FC01A083B183CA010895FA0135
:102D9000A191B081009719F41097E1F0CD01DC0109
:102DA000CD010D90002011F4C00113C0FB01219151
:102DB000222319F02015D9F7F3CFFB01219120151B
:102DC00019F41E92119606C02223C1F70D9000201F
:102DD000A1F7D001FA01A193B08308957AE0979FFB
:102DE000902D879F802D910D112408950F931F938F
:102DF000CF93DF93CDB7DEB72E970FB6F894DEBF33
:102E00000FBECDBF0E891F8986E08C831A8309838C
:102E10008FEF9FE79E838D83AE01465E5F4F688D87
:102E2000798DCE0101960E9426172F813885020FD9
:102E3000131FF80110822E960FB6F894DEBF0FBE56
:102E4000CDBFDF91CF911F910F9108952F923F92A7
:102E50004F925F926F927F928F929F92AF92BF92AA
:102E6000CF92DF92EF92FF920F931F93CF93DF9356
:102E7000CDB7DEB72F970FB6F894DEBF0FBECDBF2C
:102E80007C013B018A01DC0117961C921E92169769
:102E900013968C9181FFD3C19AE0292EFE013196C1
:102EA0004F01D70113969C91F30193FD859193FFF8
:102EB00081913F01882309F444C1853239F493FD9F
:102EC000859193FF81913F01853229F4B70190E00C
:102ED0000E943819E6CFB12C412C512CBFE1B51519
:102EE00038F08B3209F188F4803201F1833221F11C
:102EF00057FC3AC020ED280F2A3040F556FE1FC07F
:102F0000B29C200D1124B22E06C08D3291F0803378
:102F100079F7689450F8F30193FD859193FF8191BF
:102F20003F018111DBCF20C0689451F8689452F8BA
:102F3000F2CF689453F8EFCF689454F8ECCF429CEA
:102F4000200D1124422E689455F8E5CF8E3229F4D5
:102F500056FCF7C0689456F8DECF8C3619F46894A6
:102F600057F8D9CF8836B9F2982F9F7D9554933072
:102F7000C0F08336A1F18337C1F1833509F05BC01E
:102F8000D801CD90DD908D016B2D70E056FC02C014
:102F90006FEF7FEFC6010E9422195C01689457F819
:102FA0000AC00C5F1F4FEFE3E983AA24A394B12C5E
:102FB0006401E89457F853FC04C04A141B0409F058
:102FC00018F5342CA114B10431F5332009F469CF7C
:102FD000B70180E290E00E9438193A94F6CFD80108
:102FE0008C9189830E5F1F4FE0CFF801C190D19083
:102FF0008F016B2D70E056FC02C06FEF7FEFC601B2
:103000000E942D195C01D5CFB70180E290E00E94AB
:1030100038194A94D2CFF60157FC859157FE819119
:103020006F01B70190E00E94381931103A94B1E075
:10303000AB1AB108C7CF843619F0893609F071C0D0
:10304000F80157FE67C061917191819191918F0153
:10305000E52DEF76DE2E97FF09C09095809570954F
:1030600061957F4F8F4F9F4F6894D7F82AE030E0EB
:10307000A4010E946819C82EC818AC2C5D2CD6FE7D
:103080000CC0E89450F8CB1440F4D4FE05C0D2FC38
:1030900003C05D2D5E7E552EAB2C54FEA8C0FE01F4
:1030A000EC0DF11D8081803309F09AC0652D697E99
:1030B000562E752D7870372E53FCA8C050FEA2C036
:1030C000BC2CA41410F4B40CBA1854FEA5C0B7015B
:1030D00080E390E00E94381952FE07C088E751FC57
:1030E00088E590E0B7010E943819CB1408F4A0C01D
:1030F000CA94D12C8FEFC81AD80AC80CD91CD60193
:103100008E916D01B70190E00E9438198C149D04D6
:10311000B1F75BCF61917191072E000C880B990B71
:1031200096CFD52CE894D4F82AE08537D1F1F52D47
:10313000F97FDF2E803749F100F5883549F18F3668
:1031400079F1F701868197812F960FB6F894DEBF4B
:103150000FBECDBFDF91CF911F910F91FF90EF90E8
:10316000DF90CF90BF90AF909F908F907F906F90A7
:103170005F904F903F902F900895883711F7D4FEBD
:1031800002C06894D2F820E10CC06894D4F8F7CF5C
:1031900054FE03C02F2F2660D22E20E132E002C061
:1031A00028E030E0F801D7FE15C0419151916191BE
:1031B00071914C875D876E877F878F01A4016C8535
:1031C0007D858E859F850E946819C82EC818E89451
:1031D000D7F853CF81919191AC0170E060E0E9CFD5
:1031E00052FC02C0A39465CFA394A39462CF852D13
:1031F000867809F45ECFF6CFB70180E290E00E94B6
:103200003819A394A414C0F3312C5FCF342C3A188E
:10321000A41408F45ACFF8CF852D867809F465CF29
:103220008BE251FE80E257FC8DE2B70190E05BCF6C
:10323000B70180E390E00E943819BA9456CF8FEF1F
:103240009FEF82CFFC010590615070400110D8F7CC
:10325000809590958E0F9F1F0895FC0161507040DE
:1032600001900110D8F7809590958E0F9F1F0895BB
:103270000F931F93CF93DF93182F092FEB018B81AF
:1032800081FD09C01FEF0FEF812F902FDF91CF91AC
:103290001F910F91089582FF14C02E813F818C8170
:1032A0009D81281739073CF4E881F981CF01019607
:1032B0009983888310838E819F8101969F838E835B
:1032C000E3CFE885F985812F1995892BA1F3DACF12
:1032D000FA01AA27283051F1203181F1E8946F9347
:1032E0006E7F6E5F7F4F8F4F9F4FAF4FB1E03ED0ED
:1032F000B4E03CD0670F781F891F9A1FA11D680F8B
:10330000791F8A1F911DA11D6A0F711D811D911DBD
:10331000A11D20D009F468943F912AE0269F112432
:103320003019305D3193DEF6CF010895462F477096
:10333000405D4193B3E00FD0C9F7F6CF462F4F70F1
:10334000405D4A3318F0495D31FD4052419302D04F
:10335000A9F7EACFB4E0A6959795879577956795F5
:10336000BA95C9F700976105710508959B01AC01F5
:103370000A2E06945795479537952795BA95C9F71C
:10338000620F731F841F951FA01D0895F999FECF2A
:1033900092BD81BDF89A992780B50895262FF99995
:1033A000FECF92BD81BDF89A019700B4021639F0A4
:1033B0001FBA20BD0FB6F894FA9AF99A0FBE089575
:1033C000F894FFCFAE0CC90CC40CF90C280D860D77
:1033D000BF0D190E560E830E2F11341137113A11ED
:0633E0003D1140114311F4
:1033E60000000000000000000000000000000000D7
:1033F60000000000000000000000000000000000C7
:1034060000000000000000000000000000000000B6
:1034160000000000000000000000000000000000A6
:103426000000000000000000000000000000000096
:103436000000000000000000000000000000000086
:103446000000000000000000000000000000000076
:103456000000000000000000000000000000000066
:103466000000000000000000000000000000000056
:103476000000000000000000000000000000000046
:103486000000000000000000000000000000000036
:103496000000000000000000000000000000000026
:1034A6000000000000000000000000000000000016
:1034B6000000000000000000000000000000000006
:1034C60000000000000000000000000000000000F6
:1034D60000000000000000000000000000000000E6
:1034E60000000000C500C400C100C20000000000CA
:1034F60000000000000000000000000000000000C6
:1035060000000000000000000000000000000000B5
:1035160000000000000000000000000000000000A5
:103526000000000000000000000000000000000095
:103536000000000000000000000000000000000085
:103546000000000000000000000000000000000075
:103556000000000000000000000000000000000065
:103566000000000000000000000000000000000055
:103576000000000000000000000000000000000045
:103586000000000000000000000000000000000035
:103596000000000000000000000000000000000025
:1035A6000000000000000000000000000000000015
:1035B6000000000000000000000000000000000005
:1035C60000000000000000000000000000000000F5
:1035D60000000000000000000000000000000000E5
:1035E60000000000000000000000000000000000D5
:1035F600CD00CC00C900CA00000000000000000099
:1036060000000000000000000000000000000000B4
:1036160000000000000000000000000000000000A4
:103626000000000000000000000000000000000094
:103636000000000000000000000000000000000084
:103646000000000000000000000000000000000074
:103656000000000000000000000000000000000064
:103666000000000000000000000000000000000054
:103676000000000000000000000000000000000044
:103686000000000000000000000000000000000034
:103696000000000000000000000000000000000024
:1036A6000000000000000000000000000000000014
:1036B6000000000000000000000000000000000004
:1036C60000000000000000000000000000000000F4
:1036D60000000000000000000000000000000000E4
:1036E60000000000000000000000000000000000D4
:1036F600000000000000000000000000D500D4001B
:10370600D100D2001100094E5958303030303030D7
:10371600323633333230444D58202D203230313159
:1037260020200100B3010102CA010100070D01308A
:1037360007F3103607FC103B077512400724114AA1
:103746000749125807201365072C126F073C127E93
:1037560007471181077411000000000000000000F7
:10376600005354414745203320444154415B25646E
:103776005D203D20252330387800646174615B3517
:103786005D3A202523303878203B3B636865636BC0
:1037960073756D2D63616C633A2025233038780D7F
:1037A6000A00737461676532636865636B73756D70
:1037B6003A202523303878206D64625F706F6C6C18
:1037C6005F7265706C79203A2025233038780D0AAF
:1037D600004076656E642D7265717565737420257B
:1037E600643B25643B25643B25643B25642A0D0A1E
:1037F6000076656E642D7375636365737320256447
:103806000D0A00613D3D256420623D3D256420632F
:103816003D3D2564200D0A004C415354205354412C
:1038260054453D25640D0A0056656E64496E766FF3
:103836006B6564207769746820416D6D6F756E7471
:103846003A202025640D0A00564D432066656174B2
:10385600757265206C6576656C3A202020202020E4
:103866002025640D0A00564D4320646973706C610F
:103876007920636F6C756D6E733A202020202025A9
:10388600640D0A00564D4320646973706C6179209B
:10389600726F77733A202020202020202025640D87
:1038A6000A00564D4320646973706C617920696E15
:1038B600666F3A202020202020202025640D0A0053
:1038C6004D6178696D756D2070726963653A202067
:1038D60020202020202020202025640D0A004D696C
:1038E6006E696D756D2070726963653A20202020BF
:1038F6002020202020202025640D0A00636D642DE1
:10390600617070726F766564202564002000300057
:1039160072657365740068656C7000696E666F0029
:103926006D64622D73746174650073746172742DB5
:1039360073657373696F6E00617070726F76652D53
:1039460076656E640064656E792D76656E640063D7
:10395600616E63656C2D73657373696F6E00696F55
:0C39660000696E766F6B6576656E64001C
:00000001FF
